:020000040000fa
:080000000002040000000000f2
:020000040000fa
:100400000f8c20000e7f24000e01880000000000e9
:100410000c00070020fb2000010020001f00070047
:10042000000020000000e000020032000000020096
:1004300000000000d40c0200000000000040da00c0
:100440000000fe004440a900c00020000000e000c1
:100450000300320000002000a00188004440a800f2
:1004600000000600f03fb1000180b1000600350039
:10047000ee03090000000000403fb1000180b10020
:10048000fbff3d001000b000203fb000020035002f
:1004900000800900000000000000060091018800b3
:1004a000800078000000eb0015003700e28040007b
:1004b00032a0b4009101ba00e280400032a0b40042
:1004c0009102ba00e280400032a0b4000002eb00ca
:1004d000472bde00f507b200602ce10004003a0073
:1004e0000059eb008301e900fdff3e0004003700e6
:1004f0006128e100010032000082eb0004000700e7
:100500001101ba000200e000e8ff3a000000060016
:100510003159ba008301e9000c0032002159ba00b8
:100520008301e900080032000400e00003003a0003
:10053000e280400032a0b400f5ff370011d9ba00c4
:100540008301e900faff3a008100e800e180400001
:1005500032a0b400000006000040da000000fe00f7
:10056000889fbe008a9fbe00010578000100e00060
:100570000400350008003c000000e00020003200cc
:100580000500370060001000e080180002003b000a
:1005900001f02c001a0037000004be006011b80002
:1005a0006b0920000982cf00020039000882cf00c9
:1005b0000441b000694252000e00320008003b00c6
:1005c00082817100610164008904d1000884d30034
:1005d0008b05e8000442e800f9ff3a000500370007
:1005e0000804440089844c008b05e9000442e900ba
:1005f000fbff3a00100107000af0a70001f0a0007d
:100600004f05be004f04be000000060003f0a2002c
:10061000889fbe008a9fbe008c1f78002c010700b7
:10062000330133006450e1004f0032006420e100e8
:100630005200320003826c0007003b000905d00025
:100640000306d000820f54000c065d000200390042
:100650000200320089017800030678008582550087
:1006600004003d000003fd008103fd008502ea0057
:100670008b854200840f720002003b006000100076
:10068000e08018006011b8000005eb007a28e10056
:100690000a00390006007800c75ddd00f707b200e8
:1006a000878075002d003700828171000a01780073
:1006b000610560008180d1000080d3008502e900df
:1006c000f9ff3b00060440008784480002003b001d
:1006d00060041400e0841c000988a30007003200b5
:1006e0008a81710082817100610164008904d100f6
:1006f0000884d3008b05e800170037000978a300b1
:1007000013003a000b00e000130034008b05e900f1
:100710000804440089844c000a4474000978a3004a
:100720000d003a000b00e000070034008b05e900e3
:100730000804440089844c0001003a000b002000aa
:100740000978a300f7ff32000001eb000200370038
:10075000828171000a017800b70007000cf0a70041
:1007600001f0a000eb0037006420e10002003a0035
:10077000838f6c00eb0033000801be000200be0056
:10078000e4003700889fbe008a9fbe008c1f78005f
:10079000cf000700d600330003866c006450e100f0
:1007a0002e0032006420e100330032006150e1008d
:1007b0002f0032006120e1003100320085855500b4
:1007c000eb07b000090020000804200005003700f6
:1007d0000804440089844c000a00310006034300e9
:1007e00087834b000001530081815b00f8ff3300d9
:1007f0000203be000800a0000804440089844c00e5
:10080000f6ff3900c639dd008301730001003200b4
:10081000130020008904d1000884d3000998a300a4
:10082000050032000800a7000300a0008904d100e1
:100830000884d3008b05e8008904d1000884d30024
:100840000001eb000281d2007b00070001f0a10053
:100850000cf0a70001f0a000ae0037006420e1001a
:10086000b00032000801be000200be00f7ff3700f2
:100870006120e100ab0032006000b800f3ff3700f8
:100880000000200001f82700f0ff3700889fbe001d
:100890008a9fbe008c1f78008d00070094003300f3
:1008a00003866c006450e100240032006420e10003
:1008b000270032006150e100220032006120e10097
:1008c000210032008b854200eb07b1000134b800f3
:1008d000003ab8000804420089844a00013ab8008e
:1008e0000030b8008880400009014a00040033004d
:1008f0000000400081804800020149008b05e900aa
:10090000c909dd00830170000100320013002000de
:10091000c814de004814dd004709de001200b200f2
:10092000c808de00088470004300070001f0a10041
:100930000cf0a70001f0a000760037006120e10074
:10094000780032000801be000200be00f7ff370049
:100950006150e100fcff3a0072003700f4ff2f0005
:100960007300370014002000710037000001be0042
:100970008a0007000470a70003f0a1006509b10018
:10098000160032000d0035006828e1000600350031
:10099000f0ff2f00f1ff27000300e00013003b00f1
:1009a0000100280000000500000040008180480090
:1009b0008502e900fcff3a0008003700f88f42008a
:1009c00002003c008000eb00000005008100d10027
:1009d0000080d3008502e800fcff3a000300e0003d
:1009e00002003b0060001000e080180000000600dc
:1009f000320020007e0037006022b800060220008e
:100a00000000d0008180d2000482d2008582d20012
:100a10000000a0000202520083825a00030031004d
:100a20000202420083824a000000a1000603e9009e
:100a3000f3ff3a00000006008100200061805500ad
:100a40000b003d000b00200061fe2f000100e100c3
:100a50001d00340082817100610164008904d100ad
:100a60000884d3000000e800faff3a00710020007b
:100a700061006400030070000200600009003200a1
:100a800061044400e0844c000988a50005003200a0
:100a90008b05e8006808e10002003a008904d100f3
:100aa0000884d300f20f20000258e10005003d0049
:100ab000c75ddd00f907b200898075000800780085
:100ac000000006000bf827008b00780000000500ee
:100ad0000004be00310007000003be000405be0094
:100ae0000200be002d000700844f750000000600c4
:100af0000200be006450e100050036006420e10001
:100b0000020036000968a30001003a000800be0098
:100b10000160a0004f0678004f05be004f04be00e4
:100b200000000600f0ff2f00f1ff2700f9ff37005b
:100b3000889fbe008a9fbe00841f7800e4ff0700e4
:100b40004f00780011003300f0ff2f00838f6c00fe
:100b500006003b00040565000a00a70008003700f6
:100b600009f0a6001000200008003700820f540092
:100b7000838f5c00030039001000200001003e005c
:100b80000000200009f0a7000000ea004f05be00a9
:100b90004f04be000000e00000000600c70ade00af
:100ba000f107b200f50fb20008003200e1cf4200b9
:100bb000020032000170a00024000500810f7000c7
:100bc000010032000408050044000500810f700098
:100bd00002003a00140005008502e9000000400010
:100be00081c04800fcff3b000170a000240005000c
:100bf000889fbe008a9fbe008c9fbe0002067800c0
:100c000001f0a7000cf0a0000004be00e3ff070005
:100c10000800be006420e1000700390002003a002d
:100c2000f1ff2700f0ff2f000160a000120220005a
:100c3000f24588005100370009f0a1000800be000d
:100c40000200200003f8230044ff0700f4ff3c00eb
:100c50000800be00020020000398230041ff0700a7
:100c60000800be00300035000200200003f0230021
:100c70003aff070005003c000800be000801be0066
:100c800002ff07000005be000e0037000c10a20096
:100c90000000200001f823000801be005bfe0700f1
:100ca0000200200003f02300f8fe07000005be004c
:100cb000360007000200200003002c00f3fe0700ae
:100cc0000004be000a00be00b2d02800130b2c00a6
:100cd0004ffe07000a01be00ecfe0700020f2500d0
:100ce000330b24004afe0700809fbe000a00be00ae
:100cf0005206220013f02b00e4fe0700b26621002a
:100d0000f3f6230042fe07000a01be00dffe0700e3
:100d10004f01be009bfe07000801be00dbfe07007e
:100d20000801be003afe07000c00a70007003700cc
:100d3000b2fd200093fc23000c10a70034fe070036
:100d40000cf0a70001f0a2000c0037000cf0a70087
:100d50000200370001f0a20004003700b2fd2000bd
:100d6000930424000c10a60003003700b2fd2000fd
:100d700093fc23000c10a70025fe07004f06be00c1
:100d80004f05be004f04be0000000600889fbe0055
:100d90008a9fbe008c1f78000004be007fff070002
:100da0000478a30026003a006120e100250032000b
:100db00009f8a30025003a006420e1002100320078
:100dc000f507b1000508a300020032000000400052
:100dd000818048006044b800031020000200200019
:100de00000004000818048000805440089854c00cf
:100df0000a0541008b8549000a0550008b85580083
:100e0000030033000a00be000204740083847400ef
:100e10008301d1000281d300830f7100f0ff3a00fb
:100e20008904d1000884d300600149008201780060
:100e3000c1adde00fb07b000fffe070035ff370045
:100e40000960a0000800be0032ff37001202200037
:100e5000f2458800f0ff2f00f1ff27002dff37003b
:020000040000fa
:10000800ac020000ac020000ac020000ac02000030
:10001800ac020000ac020000ac020000ac02000020
:10002800ac020000ac020000ac020000ac02000010
:10003800ac020000ac020000ac020000ac02000000
:10004800ca090000ac020000ac020000ac020000cb
:10005800ac020000ac020000ac020000ac020000e0
:10006800ac020000ac020000ac020000ac020000d0
:10007800200f0000ac020000ac020000ac0200003f
:10008800ac020000ac020000ac020000ac020000b0
:10009800ac0200005e0f0000ac020000ac020000e1
:1000a800ac020000ac020000ac020000ac02000090
:1000b800ac020000ac020000ac020000ac02000080
:1000c800ac020000ac020000ac020000ac02000070
:1000d800ac020000ac020000ac020000ac02000060
:1000e800ac020000ac020000ac020000ac02000050
:1000f800ac020000ac020000ac020000ac02000040
:10010800ac020000ac020000ac020000ac0200002f
:10011800ac020000ac020000ac020000ac0200001f
:10012800ac020000ac020000ac020000ac0200000f
:10013800ac020000ac020000ac020000ac020000ff
:10014800ac020000ac020000ac020000ac020000ef
:10015800ac020000ac020000ac020000ac020000df
:10016800ac020000ac020000ac020000ac020000cf
:10017800ac020000ac020000ac020000ac020000bf
:10018800ac020000ac020000ac020000ac020000af
:10019800ac020000ac020000ac020000ac0200009f
:1001a800ac020000ac020000ac020000ac0200008f
:1001b800ac020000ac020000ac020000ac0200007f
:1001c800ac020000ac020000ac020000ac0200006f
:1001d800ac020000ac020000ac020000ac0200005f
:1001e800ac020000ac020000ac020000ac0200004f
:0801f800ac020000ac020000a3
:020000040000fa
:10020800ac020000ac020000ac020000ac0200002e
:10021800ac020000ac020000ac020000ac0200001e
:10022800ac020000ac020000ac020000ac0200000e
:10023800ac020000ac020000ac020000ac020000fe
:10024800ca090000ac020000ac020000ac020000c9
:10025800ac020000ac020000ac020000ac020000de
:10026800ac020000ac020000ac020000ac020000ce
:10027800200f0000ac020000ac020000ac0200003d
:10028800ac020000ac020000ac020000ac020000ae
:10029800ac0200005e0f0000ac020000ac020000df
:1002a800ac020000ac020000ac020000ac0200008e
:1002b800ac020000ac020000ac020000ac0200007e
:1002c800ac020000ac020000ac020000ac0200006e
:1002d800ac020000ac020000ac020000ac0200005e
:1002e800ac020000ac020000ac020000ac0200004e
:1002f800ac020000ac020000ac020000ac0200003e
:10030800ac020000ac020000ac020000ac0200002d
:10031800ac020000ac020000ac020000ac0200001d
:10032800ac020000ac020000ac020000ac0200000d
:10033800ac020000ac020000ac020000ac020000fd
:10034800ac020000ac020000ac020000ac020000ed
:10035800ac020000ac020000ac020000ac020000dd
:10036800ac020000ac020000ac020000ac020000cd
:10037800ac020000ac020000ac020000ac020000bd
:10038800ac020000ac020000ac020000ac020000ad
:10039800ac020000ac020000ac020000ac0200009d
:1003a800ac020000ac020000ac020000ac0200008d
:1003b800ac020000ac020000ac020000ac0200007d
:1003c800ac020000ac020000ac020000ac0200006d
:1003d800ac020000ac020000ac020000ac0200005d
:1003e800ac020000ac020000ac020000ac0200004d
:0803f800ac020000ac020000a1
:020000040000fa
:100e60005374000061720000742100002120000012
:080e7000000a00000d00000063
:020000040000fa
:100e78000400fa00000f78001e00780010079800a0
:100e88001e009000e10f5000070032001e00900085
:100e9800e20f5000090032001e0090000000e00040
:100ea8000b0032000f003700cdc2a800cda2a90068
:100eb800cd62a800cd82a9000e003700cdc2a900de
:100ec800cda2a800cd62a900cd82a80009003700f4
:100ed800cdc2a900cda2a900cd62a900cd82a900ea
:100ee80004003700cdc2a900cda2a900cd62a90097
:100ef800cd82a9000080fa00000006000200fa0076
:100f0800000f78001e007800000c88001e00780092
:100f1800300c88000080fa00000006000000fa008b
:100f2800313a800000e02f0000806000610220005c
:100f380001007000303a8800417420009140780028
:100f480000ceb30000c0600044e7b70044c7bf004c
:100f5800f043b20044e7b700816c2000914078006c
:100f680000ceb30000c060003040b300c8e6b70050
:100f7800f16c20009140780000ceb30000c0600002
:100f88002041b300cfe6b700a16c20009140780063
:100f980000ceb30000c060003041b300cae6b7001d
:100fa800c9c2a900c9a2a900c982a900c962a90029
:100fb8000080fa00000006000000fa001021a900d5
:100fc8000111200091407800f0ccb30000c060000f
:100fd80010e1b70011e1a80000c4290060088800ea
:100fe8000000eb00200c88000000eb00100c8800cb
:100ff8000000eb00000c88008461a9004118200063
:101008009140780080cfb30000c060006040b3001a
:1010180084e1b7000000eb00500c88000000eb00f2
:10102800400c88000000eb00300c88008a61a900a1
:10103800a11820009140780080cfb30000c0600064
:101048006040b3008ae1b7000080fa0000000600a3
:101058000000fa0070c2b30024e3b7002143a800df
:10106800013220009140780000ceb30000c070002b
:1010780020e3b70025c3bf00f041b30025e3b70064
:101088001132200091407800c0cfb30000c060004a
:1010980021e3b70021e3a80028e3a9000080fa00b3
:1010a800000006000400fa00000f780011079800fd
:1010b8001e00900067406000c500dd0023c3bf002c
:1010c8007f4060000140700023e3b7001e007800f5
:1010d8007f4060007f4160008132200091407800ad
:1010e80000ceb30000c060000240700028e3b700e3
:1010f8002003a9002043a80020c3bf00614060006e
:101108000004e000fcff32002043a9000018800022
:101118000080fa00000006000200fa00000f7800c4
:101128001e00780040118800000028000011880087
:10113800004020001011880023e2a90023a2a90082
:101148000080fa00000006000200fa00004f780054
:1011580023c2bf00624060000004e000fcff3a00c8
:101168001e00fb00201188000080fa000000060025
:101178000400fa00100798000000eb00000f780048
:10118800070037001e007800800078001e009000dd
:101198000080400010407800ebff07001e0fe800b9
:1011a8001e007800800078001e009000008040003b
:1011b800104078000004e000f2ff3a000000eb0065
:1011c800000f78000080fa00000006000a00fa000c
:1011d8004007980040002000000f78004e00900063
:1011e8000000e00014003a0000c3b300d6ff070077
:1011f800110037009e0178004e009000a2002000e8
:10120800110009000280d8008000fd000043b000f2
:10121800804078000e80e800008041000148780096
:101228004e009000a2002000110009000280d800a2
:10123800400798001e0fe9004e0090000000e000f3
:10124800020032001e00e000eaff3d001e0fe80029
:10125800060037009e0078000e80e80000804000fd
:1012680010407800b8ff07001e0fe800400020007b
:101278009e0f1000f7ff34000080fa0000000600ff
:101288000a00fa004007980040002000000f78008c
:101298004e0090000000e00002003a0000c3b300d6
:1012a800a9ff07004e0090000000e00017003d0075
:1012b800d0c2b300a4ff07004e0090000000ea006f
:1012c80040079800110037009e0178004e009000fa
:1012d800a2002000110009000200d8008000fd00d3
:1012e80002c3b300824040000e80e8000080410045
:1012f800014878004e009000a2002000110009006b
:101308000200d800400798001e0fe9004e00900028
:101318000000e000020032001e00e000eaff3d008d
:101328001e0fe800060037009e0078000e80e800d7
:10133800008040001040780083ff07001e0fe8007f
:10134800400020009e0f1000f7ff34000080fa00d4
:10135800000006000000fa001221a9002111200057
:1013680091407800f0ccb30000c0600012e1b700f3
:1013780013e1a80000772100700888009500a800f4
:101388008500a9000080fa00000006003600f80079
:10139800809fbe00829fbe00849fbe00869fbe00c5
:1013a800889fbe000e00fa008500a900f842800060
:1013b8008000eb00500020003aff07000001780091
:1013c80088004400c089200000804000020878009e
:1013d800f042800080004000c0892000008040006a
:1013e800100078006101b9000043800011438000bb
:1013f80002004000838048000043880011438800b1
:10140800004380001143800050079800610798004e
:101418005e029000ee029000e00f5200e08f5a004a
:10142800060035005e009000ee0090004afc0700c0
:101438003007980041079800160037005e009000ba
:10144800610160006000b800030020000200700025
:10145800838070005e029000ee0290008501d1004a
:101468000481d30002007000838070003afc0700fa
:1014780030079800410798003e019000ce01900087
:101488003e009000ce0090005ffc070030079800f7
:101498004107980002002000031224003e0090003b
:1014a800ce009000b5fc0700b0458800c145880013
:1014b800f04280000000e800a200200011000900ae
:1014c8000200d8008000fd00f0428800024380003e
:1014d80013438000f042800080004000c089200053
:1014e8000080400010007800cf80de00000051002e
:1014f800818059000043880011438800b845800066
:10150800c945800010428000cf80de0012fc070031
:101518000001be000800be003afc0700f24180004e
:1015280003428000d7fc0700020020000358240073
:1015380092fc0700a0428800b1428800a0428000c7
:10154800b142800022428000334280008bfc0700b9
:1015580060428800714288006042800071428000c9
:101568004242800053428000fafc07000000e0007d
:1015780009003d00404280005142800001f0a20075
:101588006242800073428000f2fc07000000e00025
:1015980001003d0011003700604280007142800068
:1015a8000200200063312400b6fc0700024022003c
:1015b8004397240071fc0700c0428800d14288008c
:1015c8008042800091428000c2428000d342800065
:1015d8000dfc07008042880091428800804280000c
:1015e800914280006011b800dcfc07000000e000b8
:1015f80001003500080037008042800091428000d9
:1016080002002000433b2400fffb070080428800c3
:10161800914288000f00370080428000914280008c
:1016280002002000433b2400cafc07000000e00041
:1016380001003d0007003700804280009142800091
:1016480002002000433b2400eefb07008042880094
:101658009142880080428000914280000200200070
:10166800432b2400e7fb07004043880051438800d0
:101678008043800091438000b7fb0700424380000d
:1016880053438000e0fb0700b6fc07008043880056
:10169800914388008243800093438000000021002a
:1016a80001002000800f5100818f59000400340090
:1016b8000000210001002000804388009143880039
:1016c800824380009343800000002f00f1ff2f0029
:1016d800800f5100818f590004003d0000002f0049
:1016e800f1ff2f0080438800914388004043800029
:1016f800514380006243800073438000c1fb0700b0
:10170800008fbe0040438000514380006043880042
:101718007143880040438000514380006011b80045
:101728008cfc07000000e00001003c001d003700b1
:1017380010002000cefd0700404380005143800088
:1017480002002000635924004efc07000004be007c
:1017580080438000914380007ffb070012ae270082
:1017680043f9230047fc07000001be000800be0043
:10177800a5fb07000004be0012832000c3d223008b
:101788001e00be003ffc07000001be000800be00ae
:101798009dfb070073fc0700a0438800b143880045
:1017a8002900370040438000514380006011b80091
:1017b8006afc07000000e000010035001d0037004a
:1017c80020002000aafd070040438000514380000c
:1017d80002002200535824002afc07000004be001f
:1017e80080438000914380005bfb070012ae270016
:1017f80043f9230023fc07000001be000800be00d7
:1018080081fb07000004be0012832000c3d223001e
:101818001e00be001bfc07000001be000800be0041
:1018280079fb07004ffc0700a0438800b1438800fc
:10183800050037000000eb008dfd07006000b800d0
:10184800a0438800b1438800a2438000b3438000ce
:1018580000c4290001002000800f5100818f590029
:101868000400340000c4290001002000a0438800bf
:10187800b1438800a2438000b3438000003c2600a7
:10188800f1ff2f00800f5100818f590004003d00a7
:10189800003c2600f1ff2f00a0438800b1438800d8
:1018a800a0438000b143800020079800ae0290005a
:1018b8000500e00003003d002e0090000000ea0053
:1018c800200798002e0090008cfd07000080fa0089
:1018d8004f04be004f03be004f02be004f01be00c2
:1018e8004f00be003600f900004006000000fa0074
:1018f8002c83a800e111200091407800f0ccb300bf
:1019080000c060000044a0001ee1b7001e61a900ed
:101918001e21a9001fe1a8000112200091407800b3
:10192800f0ccb30000c060000044a00020e1b70084
:101938002021a90021e1a800aec0bf007040b3007b
:10194800aee0b700210b20009140780000c7b3003b
:1019580000c07000b2e0b7008220a9008240a90050
:101968009680a80097a0a8001168200091407800f0
:1019780000ceb30000c060000024a00081e6b700dc
:10198800216820009140780000ceb30000c06000bc
:101998000014a00082e6b7000080fa0000000600ec
:1019a8001200fa00889fbe005cfd0700a8fd070032
:1019b80081fd070010082000d7fd070010c4b30000
:1019c800e1fd070000732800e9fd07009073280077
:1019d800e7fd0700204d200029fe07006000b80041
:1019e80030079800410798006000b8001007980079
:1019f80021079800006829008109200097fa07004c
:101a0800006829008109200094fa0700b7ff070041
:101a18000000eb00000f78000b003700d044800076
:101a2800e10f5000fdff3a00c0448000e10f500074
:101a3800faff3a000000eb00d04488000000eb00f9
:101a4800c04488001e0fe800900020009e0f100080
:101a5800f2ff34000000eb0000408800b6003700b9
:101a6800d0448000e10f5000fdff3a00c0448000e0
:101a7800e10f5000faff3a000000eb00d044880064
:101a88000000eb00c0448800f04080000141800065
:101a98001040880021408800a0408000b1408000ac
:101aa8003040880041408800124080002340800078
:101ab800504180006141800000025100818259003c
:101ac80032418000434180005041800061418000e4
:101ad80000015100818159006118b9004f08de00ea
:101ae8000100200000004100818049008180d10070
:101af8000080d3000000520081805a00c043880053
:101b0800d1438800324080004340800090418000eb
:101b1800a141800000025100818259007241800079
:101b28008341800090418000a14180000001510064
:101b3800818159006118b9004f08de0001002000ba
:101b480000004100818049008180d1000080d300dd
:101b58000000520081805a00e0438800f143880069
:101b6800c0438000d14380007bfa07000004be0018
:101b78003241800043418000504180006141800033
:101b880000015100818159006118b9004f08de0039
:101b98000100200000004100818049008180d100bf
:101ba8000080d3006cfa07000001be000800be00e8
:101bb800f2fa07000044880011448800e0438000de
:101bc800f143800064fa07000004be0072418000ff
:101bd8008341800090418000a141800000015100b4
:101be800818159006118b9004f08de00010020000a
:101bf80000004100818049008180d1000080d3002d
:101c080055fa07000001be000800be00dbfa070015
:101c180020448800314488002044800031448000fa
:101c28000200200003f823004afb07000000e00040
:101c380001003c00040037000000200001f82300e8
:101c480020448800314488002044800031448000ca
:101c58000200200003f82b0040fb07000000e00012
:101c680001003500040037000000200001f82b00b7
:101c7800204488003144880020448000314480009a
:101c880059fb070070079800010f98000044800076
:101c9800114480006011b8002efb07000000e0002e
:101ca80001003c00050037000000200001f8230077
:101cb80050079800610798000400370000002000d2
:101cc80001f82b0050079800610798005e0190000a
:101cd800ee0190007e0090008e089000e9fa07005f
:101ce8007040880081408800084080007040800073
:101cf800814080000200200043332400e1fa0700fd
:101d0800325c2f00830424009cfa070032902800dc
:101d1800832b24003cfa07000001be00c240dd000e
:101d2800c0882000008040000288be00004080007b
:101d38000000e8000040880000408000e10f5000eb
:101d480047ff34000000eb00000f78000b0037005d
:101d58008000eb0050002000d2fc07006101b900b0
:101d68001e009000ae0090000000410081804900f4
:101d780010079800210798001e0fe800703e200009
:101d88009e0f1000f2ff34001e009000ae0090007d
:101d9800823e20000300200015fb07001042880047
:101da8000068290081092000acf9070000682900b3
:101db80081092000a9f907000000eb00f042880023
:101dc80018003700f84280008000eb005000200027
:101dd800b4fc07000001780088004400c089200096
:101de8000080400002087800f04280008000400037
:101df800c089200000804000100078006101b9000f
:101e080000438000114380000200400083804800a6
:101e18000043880011438800f04280000000e80079
:101e2800f0428800f0428000e80f5000e5ff3400df
:101e380048fd0700ffff3700809fbe000000fa0042
:101e480090408000e10f50000a003a00a00880008e
:101e580001002000c0408800d14088000000eb004d
:101e6800a00888008220a8000000eb0090408800ad
:101e78000c003700904080000000e00009003a00a4
:101e8800a008800001002000a0408800b140880020
:101e98008220a90010002000904088001000200037
:101ea800c04488008680a9000080fa004f00be0068
:101eb80000400600809fbe00829fbe000000fa001e
:101ec800e0408000e10f50000a003a00c00880009e
:101ed8000100200010418800214188000000eb002b
:101ee800c00888008240a8000000eb00e04088009d
:101ef80015003700e04080000000e00012003a00c2
:101f0800c008800001002000f040880001418800de
:101f18008240a90010002000e04088001000200046
:101f2800d0448800f24080000341800020862400cd
:101f380001002000800f5100818f590002003400f9
:101f4800f04080000141800087a0a9000080fa00cd
:0c1f58004f01be004f00be00004006001c
:020000040000fa
:101f640000080000780000000200000000000000eb
:101f7400000000000000000000000000000000005d
:101f8400000000000100000000000000000000004c
:101f940000010000000000000000000000007c00c0
:101fa40079000000a249000000ae790000003e0064
:101fb40049000000a861000000a8610000000000c2
:101fc40000a0400000008f00c2753c0000008000ab
:101fd4003f0000000000000000b4420000000000c8
:101fe40000000000000000000000000000000000ed
:101ff40000000000000000000000000000000000dd
:10200400000000000000000000000000780800004c
:102014004600000000000000be08000002000000ae
:082024000000000000000000b4
:00000001FF
